:020000040000FA
:10000000FC1300205F010000000000003901000027
:1000100000000000000000000000000000000000E0
:1000200000000000000000000000000000000000D0
:1000300000000000000000000000000000000000C0
:10004000000000004B010000000000000000000064
:1000500000000000000000000000000000F002F8B6
:1000600000F040F80CA030C8083824182D18A2461B
:10007000671EAB4654465D46AC4201D100F032F8F3
:100080007E460F3E0FCCB6460126334200D0FB1A07
:10009000A246AB4633431847F01C0000101D000079
:1000A000103A02D378C878C1FAD8520701D330C8C1
:1000B00030C101D504680C607047000000230024A3
:1000C00000250026103A01D378C1FBD8520700D38F
:1000D00030C100D50B6070471FB5C046C0461FBD7C
:1000E00010B510BD01F091FB1146FFF7F5FF00F0D0
:1000F00051F801F0A9FBFFF7F3FF01F0AFFB00009F
:1001000070B505460C46164602E00FCC0FC5103EF2
:10011000102EFAD2082E02D303CC03C5083E042EBB
:1001200007D301CC01C5361F03E021782970641C78
:100130006D1C761EF9D270BD00BF12481249C8600E
:10014000BFF3408F00BF00BFFEE7104840680F4973
:1001500088600F480068401C0D490860704710B562
:1001600000F018F810BDFFB504460D4616461F46B0
:1001700000940195019802900098039068460FC87A
:1001800004B0F0BD0400FA0500ED00E000020840F4
:1001900000080020F0B585B00026002762B600BF39
:1001A00001210846884049098900394A89180860B0
:1001B00000BF00F084F80021B02000F0A7F800F0A4
:1001C00063F90A2000F00DF90121B02000F09EF83B
:1001D0000A2000F006F90026002700F052FB044632
:1001E000002C00D035E000F0C4FB0446002C00D009
:1001F0002FE000F0AEFC0446002C00D029E000F017
:100200002AFE0446002C00D023E0002500BF00F0A9
:1002100063FD07461F48874202DC1F48874208DA11
:10022000D224012D04DA681CC5B200F0D4FDEEE73B
:100230000FE00024002000F0C0FE0446002C00D097
:1002400007E000F08DFA0446002C01D0F32400E012
:1002500000BF002C06D000940197FF20613002906F
:10026000039606E00D4800900197FF206130029050
:1002700003960A2000F0B5F80021B02000F046F8FF
:10028000684600F026F930BF30BF30BF00BFFEE740
:1002900000E100E0A42000005B1F0000A5A5CACA81
:1002A000002804D1FF220132F84B1A6303E0032235
:1002B0001202F64B1A63F54A51639163704730B5E9
:1002C0000120F2490860FF210020FFF7E9FF0F201D
:1002D000EE49C8622020EE49486011200860EB48D2
:1002E000406830210843E9494860FF209130E749E0
:1002F00040310862E74C002505E003200002206041
:100300000834681CC5B2102DF7DB30BD30B50507C9
:100310002D0F0124AC40E2B2FF2424012040DE4C2A
:10032000031900290CD11C6894431C605C68944339
:100330005C609C6894439C60DC689443DC602BE0C8
:1003400001290CD15C6894435C609C6894439C6078
:10035000DC689443DC601C6814431C601CE00229C8
:100360000CD11C6894431C605C6894435C609C687E
:1003700094439C60DC681443DC600DE003290BD1DE
:100380001C6894431C609C6894439C60DC689443A4
:10039000DC605C6814435C6030BD10B50121B220A4
:1003A000FFF7B4FF002401E0601CC4B2322CFBDB79
:1003B0000021B220FFF7AAFF10BD0820B74908604E
:1003C00008464068886070470821B44A11601146A9
:1003D000496891600121C903014351618021116085
:1003E000704700B503460020AD4908602020FFF7A4
:1003F000EBFF00BFAA4800689842FBD3FFF7DDFF80
:1004000000BD00B503460020A54908600820FFF79D
:10041000DBFF00BFA24800689842FBD3FFF7CDFF87
:1004200000BD002207E0002101E04B1C99B20C291D
:10043000FBDB531C9AB28242F5D3704770B501467C
:100440000D11AD000E07360FA819C5172D0F2D1869
:100450002D112D01451BED008E4EAC1914220023E9
:100460000AE020688025284202D0501CC2B201E078
:10047000501EC2B2581CC3B20A2BF2DB142A01DD93
:10048000012070BD0020FCE78048403840690C2105
:1004900088437E4940394861084600690C218843F9
:1004A0007A49403908610846C0680C2108437749F9
:1004B0004039C860084680680C2188437349403938
:1004C0008860084600680C218843704940390860FC
:1004D00070476F4A403A126B80239A436C4B403B03
:1004E0001A6300226F4B5A609A6032226E4BDA60B8
:1004F000664A403A92680C231A43644B403B9A6028
:100500001A4652680C231A43604B403B5A601A4605
:1005100052690C239A435D4B403B5A611A4612695B
:100520000C231A43594B403B1A611A46D2680C23DC
:100530001A43564B403BDA6020225B4BC0339A6033
:1005400040225A602F22574B5A619A221A60012288
:100550005A6014229A6000229A610268120EDA60D0
:100560000268120CDA600268120ADA600268DA6065
:100570004268120EDA604268120CDA604268120AAF
:10058000DA604268DA608268120EDA608268120C01
:10059000DA608268120ADA608268DA60C268120E73
:1005A000DA60C268120CDA60C268120ADA60C268E5
:1005B000DA6000BF3B4A9268D207D20F012AF9D114
:1005C000002101E04A1CD1B25829FBDB0022354B47
:1005D0009A605A60704708B5E8203449087000F006
:1005E000CFFE0221324800F007FF009000F0EAFE43
:1005F0006B461878002801D0012008BD00F0C0FE2D
:1006000007212A4800F0F8FE009000F0DBFE6B4660
:100610001878002801D00120EFE70220FFF701FF42
:1006200000F0AEFE0221234800F0E6FE009000F04C
:10063000C9FE6B461878002801D00120DDE70220B2
:10064000FFF7EFFE00F09CFE184800788121084378
:1006500000900121684600F0CFFE00906B461878AC
:10066000002803D000F0AEFE0120C6E705220621D7
:100670000E48401C00F029FF00F0A4FE0220FFF706
:10068000D0FE0A484078002816D1B6E7002008407E
:100690008003084000210840001008400002084084
:1006A00000080020C0300840000008400000002082
:1006B000721C0000761C000001209EE710B501228C
:1006C000FC21104600F060FF0446002C01D0012000
:1006D00010BD0722FD21012000F056FF0446002C2A
:1006E00001D00120F4E70522FE21012000F04CFF9B
:1006F0000446002C01D00120EAE71222FF2101204C
:1007000000F042FF0446002C01D00120E0E7002069
:10071000DEE77CB504460D46C320FB494870084619
:1007200084708020C8700020087148718871FFF7BC
:1007300052FF0646002E01D030467CBD6A4680211D
:100740000020082300F0B9FF0646002E01D03046F5
:10075000F3E708226946284600F0F6FF0020ECE7A0
:10076000F8B500240EE0E200E84BD11822468C32A6
:10077000D0B2FFF7CEFF0546002D01D00120F8BD15
:10078000601CC4B2082CEEDB0027002405E0DF4823
:10079000005DC01987B2601CC4B20E2CF7DBDC48C8
:1007A000C01B87B2D948807B0002D849C97B40185A
:1007B00086B2B74201D00120E1E70020DFE770B543
:1007C000FFF77CFF0446002C01D0012070BD96206D
:1007D000CD494870812088700020C8700871487128
:1007E0008871FFF7F8FE0446002C01D00120EDE7E8
:1007F0000026002505E0C548405D801986B2681CCA
:10080000C5B20E2DF7DBC248801B86B23012BF493D
:100810008873CE730A4690210120402300F015FF13
:100820000446002C01D00120D0E7002515E05A2015
:10083000B549487028460C308870E8009030C87080
:100840000020087148718871FFF7C5FE0446002C2E
:1008500001D00120BAE7681CC5B2082DE7DB4B20A8
:10086000A949487000208870C87008714871887163
:10087000FFF7B1FE0446002C01D00120A6E70020BE
:10088000A4E770B50024002507219F4800F0B9FFB8
:1008900000BF00F023FDFFF780FD00F03FFD00F0FA
:1008A00056FD00F054FD00F039FD00F037FD00F07A
:1008B0004EFD00F04CFD00F04AFD00F02FFD00F071
:1008C00046FD00F02BFD00F029FD00F040FD00F09A
:1008D00025FD00F03CFD00F021FD8E48006801215F
:1008E00008438C4908608C48006B082188438A497A
:1008F00008630120FFF785FD0222FC21104600F06D
:1009000043FE0446002C01D0C92429E00F207E4973
:10091000487000208870FF20C8700020087148715E
:100920008871FFF758FE0446002C01D0CA2417E056
:100930004B207549487000208870C8700871487154
:100940008871FFF748FE0446002C01D0CB2407E055
:10095000FFF706FF0446002C01D0CC2400E000BFC6
:10096000002C04D0012D02DA681CC5B291E72046A4
:1009700070BDFEB500222121022000F005FE0022FC
:100980002221022000F000FE00222921022000F096
:10099000FBFD00222A21022000F0F6FD0022312179
:1009A000022000F0F1FD00223221022000F0ECFDD7
:1009B00000223921022000F0E7FD00223A21022026
:1009C00000F0E2FD00224121022000F0DDFD0022C6
:1009D0004221022000F0D8FD00260024AAE0600099
:1009E0004E49085A019001980005050E01984107EB
:1009F000490F01208840C0B20290B707BF0F484995
:100A0000314089000F4302213846FFF77FFCFF2168
:100A10000020FFF745FC0298C043C2B229460220DD
:100A200000F0B2FD691C0022022000F0ADFD0120A3
:100A3000FFF7E7FC3846FFF701FD0090009801281A
:100A400006D100213846FFF761FC601CC0B2FEBD34
:100A5000FF210120FFF724FC29460220029A00F022
:100A600093FD691C0022022000F08EFD0120FFF79B
:100A7000C8FC3846FFF7E2FC00900098002807D138
:100A800000213846FFF742FC20466530C0B2DEE761
:100A9000FF20F1301F498031086202210020FFF75A
:100AA000FFFBFF2091301B49803108620220FFF7D5
:100AB000A8FC3846FFF7C2FC00900098002805D13A
:100AC00000213846FFF722FCCD20C0E7FF20F1309F
:100AD00010498031086202210120FFF7E1FBFF206D
:100AE00091300C49803108620220FFF78AFC3846B9
:100AF000FFF7A4FC00900098012813DD0021384680
:100B0000FFF704FCCE20A2E7000000200800002030
:100B1000A2B60000C01F084080100840781C0000EA
:100B2000FC0F000000213846FFF7F0FB701C86B276
:100B3000601CC4B20F2C00DA51E7002241210220D0
:100B400000F022FD00224221022000F01DFD0020C5
:100B50007DE770B50025002600BF0020FF4908632F
:100B60002020FF49486011200860FC48406830217F
:100B70000843FA494860FF20F130F84940310862E3
:100B80008815F84988620221B120FFF7BFFB842253
:100B90008921032000F0F8FCFF201030EF49C862E3
:100BA0000120FFF71EFCB120FFF748FC0446002C93
:100BB00001D0CF250EE00F20E849C8620120FFF7E1
:100BC00010FCB120FFF73AFC0446002C01D1D025DF
:100BD00000E000BF00228921032000F0D5FC0021A5
:100BE000B120FFF793FB002D04D0012E02DA701C18
:100BF000C6B2B2E7284670BD70B50122BC21022002
:100C000000F0C2FC0122BD21022000F0BDFC012247
:100C1000BE21022000F0B8FCC022F421022000F026
:100C2000B3FC2022F521022000F0AEFC0020CB49CD
:100C300008632020CA49486011200860C7484068FE
:100C400030210843C549486003200002C549886235
:100C50000221B120FFF75AFB202520261DE028465F
:100C600030430546FF20F130BC4940310862294637
:100C70000120FFF715FBFF209130B8494031086291
:100C80000220FFF7BEFBB120FFF7D8FB0446002C83
:100C900002D12846B04305467610002EDFDC002244
:100CA000BC21022000F070FC0022BD21022000F0D7
:100CB0006BFC0022BE21022000F066FC0021B12066
:100CC000FFF724FB284670BD002001E0411C88B2DC
:100CD000A5498842FADB70471CB50022BC210220DE
:100CE00000F052FC0022BD21022000F04DFC002249
:100CF000BE21022000F048FC07209949486083206B
:100D000008600321B120FFF701FB00209349086030
:100D10000122BF21022000F037FC0122BA2102206B
:100D200000F032FC1F22F221022000F02DFC0122F3
:100D3000F321022000F028FC3222FC21022000F0E6
:100D400023FC46228C21022000F01EFC4A228D2129
:100D5000022000F019FCFF229421022000F014FC74
:100D6000FF229521022000F00FFC8022A421022006
:100D700000F00AFC8022A521022000F005FC0522DB
:100D80008921022000F000FC47228C21022000F083
:100D9000FBFB802071490860FFF796FF00206F4938
:100DA0000860C6228C21022000F0EEFB01AA9421EB
:100DB000022000F016FC6A469521022000F011FC8A
:100DC0000021B120FFF7A2FA6B461C7824021879A3
:100DD000044320461CBDFEB5002680278025002048
:100DE000019026E03A46BD21032000F0CDFBFFF73D
:100DF00073FF04465D498C420ADD0198022801D147
:100E00006806050E3846A8430746012001900AE00F
:100E1000FF204001844205DA384628430746022075
:100E2000019000E00126012E01D0012D00D101E04A
:100E30006D10D7E700BF012E0BD14D48C772FFF7E9
:100E4000BEFC00900098002801D00120FEBD0020CB
:100E5000FCE70120FAE7F8B5FF22511C454800F0F5
:100E60006AFCFFF72BFC0446002C01D0E920F8BDFA
:100E700078204149487000208870C8700871487116
:100E80008871FFF7A8FB0446002C01D0EA20EEE7AA
:100E900000260027002553E03848C15D3548603002
:100EA000C1776038821970210120802300F0CDFBCA
:100EB0000446002C01D0EB20D9E7761C7F1CE120F2
:100EC0002D4948707F2088700020C8702C48405DF4
:100ED00008717020487100208871FFF77CFB044680
:100EE000002C01D0EC20C2E72448C15D21486030CD
:100EF000C1776038821970210120802300F0A5FBA2
:100F00000446002C01D0ED20B1E7761C7F1CE120C7
:100F1000194948707F2088708020C8701848405D4B
:100F200008717020487100208871FFF754FB044657
:100F3000002C01D0EE209AE7082F00D100276D1C6D
:100F4000402DA9DBD2200C4948707F2088700020FA
:100F5000C87008714871887114E0000000200840D2
:100F600080030840402108404D0300001C20000081
:100F7000080000208900002000000020801D0000E3
:100F8000401D0000FFF727FB0446002C01D0EF2096
:100F90006DE7BD4880787F2801D0F02067E7BA4828
:100FA000C078002801D0F12061E7B74800794028D7
:100FB00001D0F2205BE7002059E7F8B50025FFF7E4
:100FC0007DFB0746002F01D0D320F8BD7820AE4925
:100FD0004870FFF700FB07460020AB498870C870D7
:100FE000087148718871002F01D0D420EDE70025E9
:100FF000002442E0EE01A5488219702101208023DF
:1010000000F023FB0746002F01D0D520DDE7E120CB
:101010009D4948707F2088700020C8700C71702036
:10102000487100208871FFF7D6FA0746002F01D0DB
:10103000D620CAE76D1CEE01944882197021012068
:10104000802300F002FB0746002F01D0D720BCE729
:10105000E1208D4948707F2088708020C8700C7115
:101060007020487100208871FFF7B5FA0746002FFD
:1010700001D0D820A9E76D1C641C042CBAD3B4207D
:1010800081494870202088700020C8700871FF20B6
:10109000487103208871FFF79EFA0746002F01D0A0
:1010A000D92092E7B4207849487011208870002038
:1010B000C87004200871FF20487110208871FFF764
:1010C0008AFA0746002F01D0D9207EE7B4206E4966
:1010D0004870122088700020C87011200871FF200D
:1010E000487115208871FFF776FA0746002F01D066
:1010F000D9206AE7B4206449487013208870002022
:10110000C87016200871FF2048711A208871FFF7F7
:1011100062FA0746002F01D0D92056E7B4205A4979
:101120004870142088700020C8701B200871FF20B0
:1011300048711F208871FFF74EFA0746002F01D033
:10114000D92042E7B420504948701520887000200B
:10115000C87020200871FF20487140208871FFF777
:101160003AFA0746002F01D0D9202EE7D22046496F
:101170004870072088700020C87008714871887115
:10118000FFF729FA0746002F01D0DA201DE73E4875
:101190008078072801D0DB2017E73B48C078D628A5
:1011A00001D0DC2011E738480079432801D0DD2048
:1011B0000BE7002009E710B590B0402234A1684643
:1011C000FEF79EFF002405E06846005D4049085593
:1011D000601CC4B2402CF7DB10B010BD10B500226B
:1011E000BD21032000F0D0F9002010BD00B507207C
:1011F00038494860832008600321B120FFF786F852
:1012000000203549086009E0802033490860FFF775
:101210005BFD002030490860FFF756FDF4E710B58C
:10122000002400228921022000F0AEF963229421DB
:10123000022000F0A9F931229C21022000F0A4F93B
:101240000122BB21022000F09FF90122BC210220D3
:1012500000F09AF90022BD21022000F095F9002249
:10126000BF21022000F090F90422AC21022000F0FE
:101270008BF921228C21022000F086F90120FFF752
:10128000B0F8204610BD00000000002072180000D9
:1012900009410014000C00010000308D0000B57AF7
:1012A000100C1D5300084321434839523200183AAC
:1012B000EC345935C3352236993602378237F9373F
:1012C0007D38F6388439013AA13A1F3BB83B0DF519
:1012D000080000208003084000200840FF48006804
:1012E00001210843FD49086008464069012108437F
:1012F000FA4948610846006901210843F749086135
:101300000846C06801210843F449C86070470020BE
:1013100001E0411C88B20528FBDB7047EF480068FC
:1013200040084000ED490860ED48006B0821084383
:10133000EB4908630846006B08218843E8490863C5
:101340000846006B08210843E54908637047E348F5
:10135000006801210843E1490860E148006B082169
:101360000843DF4908630846006B08218843DC49CD
:1013700008630846006B08210843D9490863704791
:1013800000B5D648006801210843D4490860FFF73A
:10139000BEFFD348006B08218843D1490863FFF79B
:1013A000B6FFCE48006840084000CC490860FFF70F
:1013B000AEFFCB48006B08210843C9490863FFF71B
:1013C000A6FF00BD00B5C548006840084000C349FD
:1013D0000860FFF79CFFC248006B08218843C049A2
:1013E0000863FFF794FFBD48006801210843BB492B
:1013F0000860FFF78CFF00BDF0B502460B460026E3
:101400005FE0945D002525E08020044206D0B348CB
:10141000006801210843B149086005E0AF48006851
:1014200040084000AD4908606006040EFFF76FFFFA
:10143000AB48006B08218843A9490863FFF767FFA1
:10144000A748006B08210843A5490863FFF75FFF21
:10145000681CC5B2082DD7DBA048006801210843ED
:101460009E490860FFF753FFFFF751FF9C48006B50
:10147000082188439A490863FFF749FF00270DE0D8
:101480007F1C9848874209D99548006B082108437A
:1014900093490863FFF73BFF0120F0BD8F480068C8
:1014A000C007C00FECD1FFF732FF8D48006B082159
:1014B00008438B490863FFF72AFFFFF728FF701CDA
:1014C00086B29E429DDB0020E7E7F7B503461F4644
:1014D000002655E00025802419E08148006B082192
:1014E00008437F490863FFF712FF6806050E641082
:1014F0007B48006B0821884379490863FFF707FFA1
:1015000076480068C007C00F01D001200543002CB9
:10151000E3D17348006B0821084371490863FFF762
:10152000F6FE964206D16D480068012108436B49DA
:10153000086005E0694800684008400067490860A5
:10154000FFF7E5FE3D706648006B0821884364495B
:101550000863FFF7DCFE7F1C6148006B082108432D
:101560005F490863FFF7D3FE5C4800680121084328
:101570005A490860FFF7CBFEFFF7C9FE701C86B220
:1015800001988642A6DBFEBDF8B504460D46164618
:101590006006000E6B461870A804000E5870FFF726
:1015A000EFFE02216846FFF727FF0746FFF70AFF15
:1015B000002F01D00120F8BDA806400E80306B46F8
:1015C00018705E70FFF7DCFE02216846FFF714FF1B
:1015D0000746FFF7F7FE002F01D00220EBE70020BF
:1015E000E9E7F8B504460D4616466006000E6B4660
:1015F0001870A804000E5870FFF7C2FE022168465A
:10160000FFF7FAFE0746FFF7DDFE002F01D00120AD
:10161000F8BDA806400E812108436B461870FFF7FD
:10162000AFFE01216846FFF7E7FE0746002F03D013
:10163000FFF7C8FE0220EBE7002201213046FFF74A
:1016400044FFFFF7BFFE0020E2E7FFB581B004468C
:101650000D4616466006000E6B461870A8115870AD
:10166000FFF78EFE02216846FFF7C6FE0746FFF72A
:10167000A9FE002F02D0012005B0F0BDA806400E43
:1016800080306B461870FFF77BFE01216846FFF73C
:10169000B3FE0746002F03D0FFF794FE0120EBE7CF
:1016A00030460499FFF7A8FE0746FFF78BFE002F90
:1016B00001D00120E0E70020DEE7FFB581B004465D
:1016C0000D461E466006000E6B461870A811587035
:1016D000FFF756FE0221684606E00000C01F0840E2
:1016E00080100840F8FF0900FFF786FE0746FFF765
:1016F00069FE002F02D0012005B0F0BDA806400E03
:10170000812108436B461870FFF73AFE01216846B5
:10171000FFF772FE0746002F03D0FFF753FE38464F
:10172000EAE7701EC2B231460398FFF7CEFEFFF71C
:1017300049FE0020E0E7D2B210B513029A18130454
:101740009A1800F04FF810BDF8B5042A2CD383077F
:1017500012D00B78491C0370401C521E83070BD01B
:101760000B78491C0370401C521E830704D00B7871
:10177000491C0370401C521E8B079B0F02D1FEF7C1
:10178000BFFCF8BDC91ADE0020239D1B08C907E075
:10179000F3401C4608C91F46AF40274380C0121FB4
:1017A000042AF5D2EB08C91A521EEAD40B78491C58
:1017B0000370401C521EE4D40B78491C0370401C7B
:1017C000521EDED409780170F8BD01E004C0091F83
:1017D0000429FBD28B0701D50280801CC90700D0E9
:1017E0000270704700290BD0C30702D00270401C62
:1017F000491E022904D3830702D50280801C891E5A
:10180000E3E70022EEE70022DFE7754600F022F86A
:10181000AE46050069465346C008C000854618B06C
:1018200020B5FEF7A0FC60BC00274908B64600269C
:10183000C0C5C0C5C0C5C0C5C0C5C0C5C0C5C0C580
:10184000403D49008D4670470446C046C04620468C
:10185000FEF751FC004870478C0100200248034904
:10186000ABBE70470D00000018000000260002000B
:101870007047021400021403021406021409021431
:101880000C02140F02141202141502141802141B75
:1018900002141E0214210212290214270211460208
:1018A000142D75812002129DC0A8C2AFC0E074F053
:1018B000D2A8000000D0E0D0A822E5E8543D700393
:1018C000021143AFE8E4F5E8EF30E307E4F50D7803
:1018D000137601EF30E203E4F50DEF30E0DCE50DC7
:1018E000607C14603E1460121470CFAFEC75EF0191
:1018F000750D028F0E850E0F80C0AFECE50FC394FF
:10190000F0400BE50F540F24F0F8A607800EE50F0A
:10191000C394E050077400250FF8EFF275EF01054E
:101920000F8097EF30E107E4F5EFF50D808CE50FC0
:10193000C394F0400AE50F540F24F0F8E68015E553
:101940000FC394E04008E50F9013109380067400D5
:10195000250FF8E2F5EC75EF02050F021048AFEC29
:10196000EFC31365107048EF30E03B850E0FE50FB5
:10197000C394F0400AE50F540F24F0F8E6801AE50E
:101980000FC394E0400DE50F90131093F5EC75EF45
:1019900002800B7400250FF8E2F5EC75EF03050FDC
:1019A000750D0102104875EF01750D03021048E432
:1019B000F5EF021048C29C22C2AF75F2FF75FC32EF
:1019C000D20075094F750A80850A828509837401E2
:1019D00093FFE493FD2FFFE433FEEF645C4E60055C
:1019E00075081580028D08E47800F208F208F20804
:1019F000F2AF0812126CD2AF200103021209850A5D
:101A000082850983740493FE740593FF740293FC2A
:101A1000740393FD2FFFEC3EFEEF645C7003EE64F5
:101A20005C6008750B00750C6480048C0B8D0CE5F4
:101A30000C150CAE0B7002150B4E6038751103754A
:101A40001220E51215127002151114451170F37869
:101A500000E2B430DA08E2B431D508E2B432D0089A
:101A6000E2B433CB78007433F20814F20814F208AD
:101A700014F28007C201C20012143078FC7602080A
:101A800076130876050876077813E660FBE4F678A7
:101A9000F0E654F060F212103680EDC0E0C0F0C005
:101AA00083C082C0D075D000C000C001C002C00396
:101AB000C004C005C006C0073000051210488003EE
:101AC000121424D007D006D005D004D003D002D001
:101AD00001D000D0D0D082D083D0F0D0E0328F10AF
:101AE000E478F0F675B8C0F5BE75BDC0F5BC75BF3D
:101AF000C0F50D7813F643FA02F50EF5E8F5EB752F
:101B0000ED01E51025E0F5EE75E96143AA1022D25A
:101B100000D2010211460000000000000000000099
:101B200000000000000000000000000000000000B5
:101B300000000000000000000000000000000000A5
:101B40000000000000000000000000000000000095
:101B50000000000000000000000000000000000085
:101B60000000000000000000000000000000000075
:101B70000000000000000000000000000000000065
:101B80000000000000000000000000000000000055
:101B90000000000000000000000000000000000045
:101BA0000000000000000000000000000000000035
:101BB0000000000000000000000000000000000025
:101BC0000000000000000000000000000000000015
:101BD0000000000000000000000000000000000005
:101BE00000000000000000000000000000000000F5
:101BF00000000000000000000000000000000000E5
:101C000000000000000000000000000000000000D4
:101C100000000000000000000000000000000000C4
:101C200000000000000000000000000000000000B4
:101C300000000000000000000000000000000000A4
:101C40000000000000000000000000000000000094
:101C50000000000000000000000000000000000084
:101C60000000302E302E3100000000000000000087
:101C700000000203000070F4170216029702960299
:101C800095029402130312031103100393039203AA
:101C90009103900310040000000000000000000009
:101CA0000000000000000000000000000000000034
:101CB0000000000000000000000000000000000024
:101CC0000000000000000000000000000000000014
:101CD0000000000000000000000000000000000004
:101CE00000000000000000000000000000000000F4
:101CF00000000000000000000000000000000000E4
:101D000000000000000000000000000000000000D3
:101D100000000000000000000000000000000000C3
:101D200000000000000000000000000000000000B3
:101D300000000000000000000000000000000000A3
:101D4000000102030405060708090A0B0C0D0E0F1B
:101D5000101112131415161718191A1B1C1D1E1F0B
:101D6000202122232425262728292A2B2C2D2E2FFB
:101D7000303132333435363738393A3B3C3D3E3FEB
:101D80007FBFDFEFF7FBFDFEA81D00000000002075
:101D900008000000A0000000B01D000008000020A6
:101DA000E4010000BC000000000000000000000092
:040000050000015F97
:00000001FF
